:060000000A128A11122809
:10000800FE00030E83120313D4000408D5000A0867
:10001800D6007F08D7000A128A11642A0A128A11A8
:10002800152883135B30840070300A128A15D8248F
:100038000A128A11BC308400CD300A128A15D824DD
:1000480083010A128A15372E83120313BE002B3040
:10005800B3003308B9000130AA07FF302A0784002B
:100068000A128A110A250A128A11B3003308C3003A
:10007800C30803195F2A4308253A03194F28430880
:10008800B3003E0884003308831380000130B300B6
:100098003308BE072F28BF01C001B8012A08840011
:1000A8000A128A110A250A128A110A128A15E024EC
:1000B8000A128A11031CA22883120313BF01C0016C
:1000C8000A30F0000030F100831203134008F301F6
:1000D800F3073F08F201F2070A128A157E250A1271
:1000E8008A11710883120313C001C0077008BF0189
:1000F800BF072A0884000A128A110A250A128A11DF
:10010800D03EB300FF3003180030B4003308BF07F7
:100118000318C00A3408C0070130B3003308AA071F
:100128002A0884000A128A110A250A128A110A1258
:100138008A15E0240A128A1103186428831203130B
:100148002A0884000A128A110A250A128A112E3AEC
:10015800031DF0280130B3003308AA07C101C2010A
:100168002A0884000A128A110A250A128A110A1218
:100178008A15E0240A128A11031CFC28831203132F
:100188004208F101F1074108F001F0070A30F200D6
:100198000030F3000A128A157E250A128A1183128A
:1001A80003132A0884000A128A110A250A128A11DE
:1001B8007007B3000030031801307107B40033082A
:1001C800D03EC10034080318013EFF3EC200013092
:1001D800B3003308AA07B42883120313C101C2016C
:1001E800FC283816FC28C030B3003308B80413299B
:1001F800013083120313AA07FF302A0784000A126A
:100208008A110A250A128A11C300003A03195F2AC3
:100218006C3A0319F528193A0319F7282F28381EBC
:1002280025293908840083130008BA00840A0008C5
:10023800BB00840A0008BC00840A0008BD00043022
:1002480034293908840083130008B300840A00089D
:10025800B4003308BA003408BB00BC01BD01023049
:10026800B3003308B90742084104031D47293D0874
:100278003C043B043A04031D47290130C107031815
:10028800C20A0030C207C301C30A43080A3A031965
:1002980089294308B30001300310B30DFF3E031D45
:1002A80050290310330D013E84000A128A110A25D1
:1002B8000A128A11B4000A128A110A250A128A112E
:1002C800B5000A128A110A250A128A11B6000A1202
:1002D8008A110A250A128A11B70037083D02031D40
:1002E8007F2936083C02031D7F2935083B02031D80
:1002F8007F2934083A02031C89290130B3003308E6
:10030800C30743080A3A031D4D294308B300B40143
:10031800B31BB4033408803AB5004208803A35026A
:10032800031D9829410833020318A12983120313D6
:100338004108B3003308C300BB29831203134308E1
:10034800B300B401B31BB4034208803AB5003408C3
:10035800803A3502031DB229330841020318BB292C
:10036800831203134308C100C201C11BC2038312D5
:1003780003134308B300B401B31BB4033408803A31
:10038800B5004008803A3502031DCC293F083302E6
:100398000318DC29831203134308B300B401B31B09
:1003A800B4033308BF023408031CC003C002E029A9
:1003B80083120313BF01C00140083F040319502AE8
:1003C8002030B3003E0884003308831380000130D6
:1003D800B3003308BE07FF30BF070318C00AFF3059
:1003E800C007E0290030A3000030A2000030A100BF
:1003F8000A30A0004108B30001300310B30DFF3EDE
:10040800031D012A0310330D013E84000A128A11CC
:100418000A250A128A11F0000A128A110A250A12FC
:100428008A11F1000A128A110A250A128A11F200A9
:100438000A128A110A250A128A11F3003D08F700E8
:100448003C08F6003B08F5003A08F4000A128A1145
:1004580073240A128A11730883120313A7007208FF
:10046800A6007108A5007008A4000A128A15E925DB
:100478000A128A11831203132008303EB40034088C
:10048800C3004308B3003E08840033088313800088
:100498000130B3003308BE07FF30C1070318C20A92
:1004A800FF30C207FF304206031D5C2AFF304106B9
:1004B80003192F28F6293E088400831380010800B9
:1004C8000C1C782A1F308F0000308E000A3060061E
:1004D8006104031D772A0130E2070318E30A00309C
:1004E800E307E001E1010C100C1FDC2A0030F000EA
:1004F8000030F1000A128A11E6270A128A118312C3
:1005080003131E08DF01DF07831603131E08831277
:100518000313DE01DE072830A000A030A1003B3025
:10052800A2005F08F901F9075E08F801F8070A1246
:100538008A1510250A128A11780883120313A3005A
:100548007908A4007A08A5000A128A11F1250A126E
:100558008A11831203132008DB002108DC0022081B
:10056800DD005B08C4005C08C5005D08C6006E308D
:10057800D2005208C7000A128A11C4260A128A1128
:1005880083120313D3005308E4006408F100003019
:10059800F2000A128A155B250A128A1102308312A8
:1005A8000313D200D20BD62AD92A831203130C13B1
:1005B8008C1E612B0A128A1524250A128A118312AD
:1005C8000313D2005208D800502B2330D20052080F
:1005D800E5003A30D2005208E6000030F000003062
:1005E800F1000A128A11E6270A128A1183120313EC
:1005F8001E08D2005208D900831603131E0883125E
:100608000313D2005208DA00D908031D0F2B30302B
:10061800D2005208D900DA08031D162B3030D20058
:100628005208DA005908D2005208E7005A08D200E6
:100638005208E8003030D2005208E9003030D200C9
:100648005208EA003030D2005208EB003030D200B5
:100658005208EC003B30D2005208ED006530F10042
:100668000030432B06169730412B06125130412B90
:100678008616B730412B86127430F1008030F200B4
:100688000A128A155B250A128A1123308312031372
:10069800D2005208D800612B5808413A0319E92AB8
:1006A800033A0319362B013A0319392B073A031970
:1006B8003C2B013A03193F2B612B5708FF005608C2
:1006C8008A0055088400540E8300FE0E7E0E090031
:1006D800780883120313A0007908A1007A08A20001
:1006E8000310210D220DA3002308A6007B08A000FB
:1006F8007C08A1007D08A2000310210D220DA30093
:100708002308A50026080319952B25082602031897
:100718009C2B2603FF3A2507A00019302002031C52
:100728009C2B7B08F8007C08F9007D08FA0008007B
:10073800250803190800260825020318AB2B2503F2
:10074800FF3A2607A00019302002031808000630D7
:10075800A0002008A400FA1BA417FD1B2417F917F2
:10076800FF30F805FF30F9050030FA05FC17FF30B7
:10077800FB05FF30FC050030FD052508260203189F
:10078800EB2B01300310FB0DFC0DFD0DFF3E031D8F
:10079800C62B0130A502250826060319E62B0130D1
:1007A800A402240807390319E62BC52B01300310CE
:1007B800FA0CF90CF80CFF3E031DDB2B0130A000EE
:1007C8002008A607260825060319142CDA2B260864
:1007D80025020318142C01300310F80DF90DFA0D39
:1007E800FF3E031DF02B0130A6022508260603193B
:1007F800102C0130A402240807390319102CEF2B00
:1008080001300310FD0CFC0CFB0CFF3E031D052CF6
:100818000130A0002008A50726082506031D042C82
:10082800A41F262CFF30F806FF30F906FF30FA0621
:100838000130F807003003180130F90700300318B9
:100848000130FA07241F382CFF30FB06FF30FC0666
:10085800FF30FD060130FB07003003180130FC07AC
:10086800003003180130FD07A4017808FB07790858
:1008780003110318790A031DFC077A0803110318EA
:100888007A0A031DFD07FD1F5B2CFF30FB06FF30B6
:10089800FC06FF30FD060130FB070030031801306D
:1008A800FC07003003180130FD07A401A40A7B08E7
:1008B800F0007C08F1007D08F2002608A00020085E
:1008C800F3002408A1002108F4000A128A117E27E7
:1008D8007008F8007108F9007208FA000800003082
:1008E800FC000030FB000030FA000030F90073080B
:1008F8007204710470040319C82CFD01FD0AF31B6E
:10090800932C0130F8000310F00DF10DF20DF30DEA
:10091800F80B872C0130F8007808FD07832C01308C
:10092800F8000310F90DFA0DFB0DFC0DF80B952CD2
:1009380073087702031DAA2C72087602031DAA2CDD
:1009480071087502031DAA2C70087402031CBB2CC5
:100958007008F4027108031C710FF5027208031C79
:10096800720FF6027308031C730FF7027914013033
:100978000310F30CF20CF10CF00CFF3E031DBC2C21
:100988000130FD02031D932C7C08F3007B08F20064
:100998007A08F1007908F00008008E30FC007C0825
:1009A800FD00FF307B050319E72C01300310FB0C19
:1009B800FA0CF90CF80CFF3E031DDA2C0130FC0090
:1009C8007C08FD07D52C7808F0007908F1007A0832
:1009D800F2007D08FC007C08F300F4010A128A1179
:1009E8007E277008F8007108F9007208FA000800FC
:100A0000FF1B0A2D83137F1883170008840A03191C
:100A1000FF0A080005308A000408840A82070034AF
:100A200001340034003400340A340034003400341B
:100A30006434003400340034E834033400340034C7
:100A40001034273400340034A034863401340034A8
:100A5000403442340F3400348034963498340034B7
:100A60000034E134F53405340034CA349A343B346C
:100A70000A340D3420342D342D342D342D342D34BE
:100A80002D342D3420344534533454344F345534BC
:100A900052344F34203444344534203450344934B3
:100AA0004C344834413420342D342D342D342D34FD
:100AB0002D342D342D3420340A340D3420340034B8
:100AC0002D342D342D342D342D342D342D342D341E
:100AD0002D342D342D342D343E342034763461348D
:100AE0006C34763475346C346134203431342034D1
:100AF0006434653473346134743469347634613405
:100B00006434613400342D342D342D342D342D349F
:100B10002D342D342D342D342D342D342D343E34BC
:100B20002034763461346C34763475346C3461340A
:100B30002034323420346434653473346134743492
:100B40006934763461346434613400342D342D34A6
:100B50002D342D342D342D342D342D342D342D348D
:100B60002D342D343E342034763461346C34763474
:100B700075346C346134203431342034613474344D
:100B80006934763461346434613400342D342D3466
:100B90002D342D342D342D342D342D342D342D344D
:100BA0002D342D343E342034763461346C34763434
:100BB00075346C346134203432342034613474340C
:100BC00069347634613464346134003425346C34EF
:100BD00075342E34253436342E3436346C34753432
:100BE0000034831203132008A6002108A70022085E
:100BF000A8000310270D280DA9002908AA00AA089B
:100C0000031D092E0030A0000030A1000030A2001A
:100C100008002308A6002408A7002508A800031040
:100C2000270D280DA9002908AF00AF08031D1F2EAE
:100C30000030A0000030A1000030A20008002F0802
:100C40007B3EA6002608AA072008A6002108A700C8
:100C50002208A80010300310A80CA70CA60CFF3E19
:100C6000031D2B2E2608A9002908AF002308A60083
:100C70002408A7002508A80010300310A80CA70C12
:100C8000A60CFF3E031D3D2E2608A9002908AF062D
:100C90008030A6002608AF05A117A417FF30A305D2
:100CA000FF30A4050030A5050030AB000030AC00DB
:100CB0000030AD000730A6002608AE00201C6E2EC6
:100CC0002308AB07240803110318240A031DAC07EB
:100CD000250803110318250A031DAD070130031071
:100CE000A20CA10CA00CFF3E031D6F2E01300310BF
:100CF000A30DA40DA50DFF3E031D772E0130AE02FE
:100D0000031D5E2E0930A6002608AE00201C962E7C
:100D10002308AB07240803110318240A031DAC079A
:100D2000250803110318250A031DAD070130031020
:100D3000A20CA10CA00CFF3E031D972E0130031046
:100D4000AD0CAC0CAB0CFF3E031D9F2E0130AE0270
:100D5000031D862E2B08F0002C08F1002D08F20050
:100D60002A08A6002608F3002F08A7002708F40089
:100D70000A128A117E27700883120313A0007108DB
:100D8000A1007208A2000800BC3083120313C8003F
:100D90004808D1004408F0004508F1004608F20078
:100DA0000030F3000030F4000030F5000A128A151C
:100DB00086260A128A110318FD2E2D308312031382
:100DC000C800510884004808831380000130C8001F
:100DD0004808D1074408F0004508F1004608F20031
:100DE0000A128A15D0240A128A117008831203137A
:100DF000C4007108C5007208C600831203134408BA
:100E0000B0004508B1004608B2000A128A15E32670
:100E10000A128A11831203133308D0003208CF005C
:100E20003108CE003008CD005008FB004F08FA0012
:100E30004E08F9004D08F8000A128A11D1240A124E
:100E40008A11780883120313A7007908A8007A088A
:100E5000A9004408AA004508AB004608AC000A12E5
:100E60008A153F250A128A11831203132708C4002A
:100E70002808C5002908C6004408A3004508A400A6
:100E80004608A5002430A0007430A1004930A2001B
:100E90000A128A11F1250A128A11831203132008FB
:100EA000B0002108B1002208B2000A128A15E32618
:100EB0000A128A11831203133308CC003208CB00C4
:100EC0003108CA003008C900D730C8004808AA0055
:100ED0005008AE004F08AD004E08AC004D08AB0006
:100EE0004C08B2004B08B1004A08B0004908AF00F6
:100EF00051080A128A112820BC300800730803190F
:100F0000862F720871047004031D992F0030F000C1
:100F10000030F1000030F20008000130F5007508E3
:100F2000F30701300310F20CF10CF00CFF3E031D2F
:100F3000922FFE3072050319B42F8D2F0130F5006A
:100F40007508F3070130F007003003180130F1078E
:100F5000003003180130F20701300310F20CF10CDD
:100F6000F00CFF3E031DAD2FFF3072050319C32F98
:100F70009E2F0130F30201300310F00DF10DF20D40
:100F8000FF3E031DBC2FF11FB92F7318CD2FFF306B
:100F9000F0057F30F105FF30F2050310F30C730804
:100FA000F500F601F70110300310F50DF60DF70D01
:100FB000FF3E031DD42F7508F0047608F10477086E
:100FC000F204740803190800F21708007008F20010
:100FD000F20DF20DF20D831203131F087206C739CA
:100FE00072069F001F142630F200F20BF52F8312B9
:0C0FF00003131F151F19FA2F0C13080023
:10199000F000831203130C1EC92C70089900080074
:1019A000720871047004031908008030F206080000
:1019B00064008001840A0406031900340406D92C4B
:1019C000F100F0013A3071020318EC2C3030710252
:1019D000031CEC2CF001F00A700C080083120313B6
:1019E000901090119016101610141F308F000030B8
:1019F0008E000C10831603130C14080083160313B7
:101A00009F179F151F159F141F10831203139F17F5
:101A10001F13831603130C13831203130C130800F4
:101A20007808F0007908F100F2018E30FB007B08A5
:101A3000F300F4010A128A117E277008F800710879
:101A4000F9007208FA0008008312031398182D2D6C
:101A50001A08F3007308F4003C2D2930F10080309F
:101A6000F2000A128A155B258312031318121A0852
:101A7000F3007308F40018168C1274080800803004
:101A800083120313A9062A08F8002B08F9002C0872
:101A9000FA002708FB002808FC002908FD000A12AC
:101AA0008A116C23780883120313A7007908A80011
:101AB0007A08A9000800720883120313FF00710856
:101AC00084000A128A1100250A128A1500380319A7
:101AD0000800720883120313FF00710884000A12C1
:101AE0008A1100250A128A150A128A15C8240A12B8
:101AF0008A150130F1070318F20A5B2DF401F50194
:101B0000701C882D7208F4070318F50A7308F5078E
:101B100001300310F20DF30DFF3E031D892D01303E
:101B20000310F10CF00CFF3E031D902D71087004A2
:101B3000031D802D7508F101F1077408F001F0070D
:101B4000080083160313B8012F08B3003008B4004F
:101B50003108B5003208B60004300310B30DB40DDF
:101B6000B50DB60DFF3E031DAD2D3608A30035089B
:101B7000A2003408A1003308A0000130A7001930EA
:101B8000A6004030A5000030A4000A128A15712773
:101B9000831603132008FF3EB7003708B800380843
:101BA00099009813181398161812181598141810ED
:101BB00083120313981718139812181698111811F6
:101BC00098101810831603138C16831203138C12AB
:101BD000080083120313230822042104200403199C
:101BE0002E2EA901A90AA31B032E0130A800031061
:101BF000A00DA10DA20DA30DA80BF72D0130A8007B
:101C00002808A907F32D23082702031D112E2208F7
:101C10002602031D112E21082502031D112E200866
:101C20002402031C212E2008A4022108031C210FDA
:101C3000A5022208031C220FA6022308031C230F5F
:101C4000A70201300310A30CA20CA10CA00CFF3EB4
:101C5000031D222E0130A902031D032E2708A30015
:101C60002608A2002508A1002408A00008000130D1
:101C70008316031385000130831203138500831636
:101C80000313860183120313860180308316031326
:101C90008700C03083120313870083160313880163
:101CA000831203138801073083160313890007305A
:101CB000831203138900003083160313B20001302E
:101CC000B100C230B0000030AF000A128A15A12561
:101CD0000A128A150A128A15FE240A128A150B178F
:101CE0008B170A3083160313BB005A30BA00C33077
:101CF000B900B90B792EBA0B792EBB0B792E802E39
:101D00000A128A15EE240A128A15852EF21FAD2EAC
:101D10000030F6000030F7008030F8007009F9005C
:101D20007109FA007209FB00F90A0319FA0A03198A
:101D3000FB0A7908F6077A0803187A0FA02EA12E5D
:101D4000F7077B0803187B0FA62EA72EF807760847
:101D5000F0007708F1007808F200F51FD42E00306B
:101D6000F6000030F7008030F8007309F9007409BC
:101D7000FA007509FB00F90A0319FA0A0319FB0AAC
:101D80007908F6077A0803187A0FC72EC82EF707C6
:101D90007B0803187B0FCD2ECE2EF8077608F300B4
:101DA0007708F4007808F5008030F2068030F506F8
:101DB00075087202031D080074087102031D0800F3
:101DC000730870020800831203133008B40031084E
:101DD000B5003208B6000310350D360DB7003708D0
:101DE000BD00BD08031DFD2E0030B3000030B20061
:101DF0000030B1000030B00008003008B4003108F5
:101E0000B5003208B60017300310B60CB50CB40C90
:101E1000FF3E031D042F3408B7003708B800B11780
:101E2000FF30B005FF30B1050030B2053008B90011
:101E30003108BA003208BB00BC018E30BD02BD1FA4
:101E40003F2F3D08803A8F3E03182F2F0030B300FC
:101E50000030B2000030B1000030B00008000130A6
:101E60000310BC0CBB0CBA0CB90CFF3E031D302F89
:101E70000130B4003408BD0703195A2F2F2F183032
:101E80003D02031C572F0030B3000030B200003079
:101E9000B1000030B00008000130B4000310B90DEB
:101EA000BA0DBB0DBC0DB40B4E2F0130BD02BD08E9
:101EB000031D4C2F38080319682FB909BA09BB094B
:101EC000BC09B90A0319BA0A0319BB0A0319BC0AE7
:101ED0003C08B3003B08B2003A08B1003908B00032
:101EE000080083160313AA01A31F832FA009A109C9
:101EF000A209A309A00A0319A10A0319A20A031936
:101F0000A30AAA01AA0AA71F942FA409A509A60932
:101F1000A709A40A0319A50A0319A60A0319A70AFF
:101F20000130A8002808AA060030AE000030AD003D
:101F30000030AC000030AB00230822042104200450
:101F40000319E92FA901A90AA31BB42F0130A80086
:101F50000310A00DA10DA20DA30DA80BA82F0130F9
:101F6000A8002808A907A42F0130A8000310AB0D72
:101F7000AC0DAD0DAE0DA80BB62F23082702031D27
:101F8000CB2F22082602031DCB2F21082502031D7B
:101F9000CB2F20082402031CDC2F2008A4022108D8
:101FA000031C210FA5022208031C220FA6022308EE
:101FB000031C230FA7022B1401300310A30CA20C47
:101FC000A10CA00CFF3E031DDD2F0130A902031D53
:101FD000B42F2A080319F72FAB09AC09AD09AE09D4
:101FE000AB0A0319AC0A0319AD0A0319AE0A2E088D
:101FF000A3002D08A2002C08A1002B08A0000800B7
:02400E0032FF7F
:00000001FF
