:060000000A128A11122809
:10000800FE00030E83120313D5000408D6000A0865
:10001800D7007F08D8000A128A11042D0A128A1103
:10002800152883135C3084006D300A128A158224E7
:100038000A128A11BC308400CD300A128A15822433
:1000480083010A128A15312E83120313BF002C3044
:10005800B4003408BA002B08B5002A08B400AA0A6C
:100068000319AB0A3508FF00340884000A128A1104
:1000780000240A128A11B6003608C400C4080319FD
:100088007F2A4408253A031955284408B4003F0834
:1000980084003408831380000130B4003408BF079B
:1000A8002F28C001C101B9012B08FF002A088400CC
:1000B8000A128A1100240A128A110A128A158A243D
:1000C8000A128A11031CAE2883120313C001C1014E
:1000D8000A30F0000030F100831203134108F301E5
:1000E800F3074008F201F2070A128A151C250A12C2
:1000F8008A11710883120313C101C1077008C00176
:10010800C0072B08FF002A0884000A128A1100245D
:100118000A128A11D03EB400FF3003180030B5002F
:100128003408C0070318C10A3508C1070130AA07F7
:100138000318AB0A2B08FF002A0884000A128A1148
:1001480000240A128A110A128A158A240A128A11AC
:1001580003186C28831203132B08FF002A08840055
:100168000A128A1100240A128A112E3A031D022942
:100178000130AA070318AB0AC201C3012B08FF000C
:100188002A0884000A128A1100240A128A110A1203
:100198008A158A240A128A11031C0E298312031352
:1001A8004308F101F1074208F001F0070A30F200B4
:1001B8000030F3000A128A151C250A128A118312CC
:1001C80003132B08FF002A0884000A128A1100244E
:1001D8000A128A117007B400003003180130710741
:1001E800B5003408D03EC20035080318013EFF3E72
:1001F800C3000130AA070318AB0AC22883120313ED
:10020800C201C3010E2939160E29C030B4003408C2
:10021800B9042B29831203132B08B5002A08B4004C
:10022800AA0A0319AB0A3508FF00340884000A1229
:100238008A1100240A128A11C400003A03197F2A7D
:100248006C3A03190729193A031909292F28391E65
:100258003D293A08840083130008BB00840A00087B
:10026800BC00840A0008BD00840A0008BE000430EF
:100278004C293A08840083130008B400840A000853
:10028800B5003408BB003508BC00BD01BE01023012
:10029800B4003408BA0743084204031D5F293E0826
:1002A8003D043C043B04031D5F290130C2070318C9
:1002B800C30A0030C307C401C40A44080A3A031930
:1002C800A5294408B40001300310B40DFF3E031DF6
:1002D80068290310340D123E840084300318013E4F
:1002E800FF000A128A1100240A128A11B5000A12A4
:1002F8008A1100240A128A11B6000A128A110024EF
:100308000A128A11B7000A128A1100240A128A11E5
:10031800B80038083E02031D9B2937083D02031D1B
:100328009B2936083C02031D9B2935083B02031C08
:10033800A5290130B4003408C40744080A3A031D4B
:1003480065294408B400B501B41BB5033508803AE3
:10035800B6004308803A3602031DB4294208340225
:100368000318BD29831203134208B4003408C400DB
:10037800D729831203134408B400B501B41BB5038D
:100388004308803AB6003508803A3602031DCE2964
:10039800340842020318D729831203134408C20001
:1003A800C301C21BC303831203134408B400B5017D
:1003B800B41BB5033508803AB6004108803A3602C6
:1003C800031DE829400834020318F829831203138F
:1003D8004408B400B501B41BB5033408C00235089D
:1003E800031CC103C102FC2983120313C001C1010C
:1003F800410840040319702A2030B4003F088400E3
:100408003408831380000130B4003408BF07FF307C
:10041800C0070318C10AFF30C107FC290030A30038
:100428000030A2000030A1000A30A0004208B40049
:1004380001300310B40DFF3E031D1D2A0310340DB7
:10044800123E840084300318013EFF000A128A110C
:1004580000240A128A11F0000A128A1100240A12D2
:100468008A11F1000A128A1100240A128A11F20074
:100478000A128A1100240A128A11F3003E08F700B2
:100488003D08F6003C08F5003B08F4000A128A1102
:100498008B230A128A11730883120313A7007208A8
:1004A800A6007108A5007008A4000A128A15E325A1
:1004B8000A128A11831203132008303EB50035084A
:1004C800C4004408B4003F08840034088313800043
:1004D8000130B4003408BF07FF30C2070318C30A4D
:1004E800FF30C307FF304306031D7C2AFF30420656
:1004F80003192F28122A3F0884008313800108005B
:10050800780883120313A0007908A1007A08A200D2
:100518000310210D220DA3002308A6007B08A000CC
:100528007C08A1007D08A2000310210D220DA30064
:100538002308A50026080319AD2A25082602031852
:10054800B42A2603FF3A2507A00019302002031C0D
:10055800B42A7B08F8007C08F9007D08FA00080036
:10056800250803190800260825020318C32A2503AD
:10057800FF3A2607A00019302002031808000630A9
:10058800A0002008A400FA1BA417FD1B2417F917C4
:10059800FF30F805FF30F9050030FA05FC17FF3089
:1005A800FB05FF30FC050030FD0525082602031871
:1005B800032B01300310FB0DFC0DFD0DFF3E031D49
:1005C800DE2A0130A502250826060319FE2A013075
:1005D800A402240807390319FE2ADD2A0130031072
:1005E800FA0CF90CF80CFF3E031DF32A0130A000A9
:1005F8002008A6072608250603192C2BF22A260808
:10060800250203182C2B01300310F80DF90DFA0DF3
:10061800FF3E031D082B0130A602250826060319F4
:10062800282B0130A402240807390319282B072B8B
:1006380001300310FD0CFC0CFB0CFF3E031D1D2BB1
:100648000130A0002008A50726082506031D1C2B3D
:10065800A41F3E2BFF30F806FF30F906FF30FA06DC
:100668000130F807003003180130F907003003188B
:100678000130FA07241F502BFF30FB06FF30FC0621
:10068800FF30FD060130FB07003003180130FC077E
:10069800003003180130FD07A4017808FB0779082A
:1006A80003110318790A031DFC077A0803110318BC
:1006B8007A0A031DFD07FD1F732BFF30FB06FF3071
:1006C800FC06FF30FD060130FB070030031801303F
:1006D800FC07003003180130FD07A401A40A7B08B9
:1006E800F0007C08F1007D08F2002608A000200830
:1006F800F3002408A1002108F4000A128A118B27AC
:100708007008F8007108F9007208FA000800003053
:10071800FC000030FB000030FA000030F9007308DC
:100728007204710470040319E02BFD01FD0AF31B28
:10073800AB2B0130F8000310F00DF10DF20DF30DA5
:10074800F80B9F2B0130F8007808FD079B2B013030
:10075800F8000310F90DFA0DFB0DFC0DF80BAD2B8D
:1007680073087702031DC22B72087602031DC22B81
:1007780071087502031DC22B70087402031CD32B69
:100788007008F4027108031C710FF5027208031C4B
:10079800720FF6027308031C730FF7027914013005
:1007A8000310F30CF20CF10CF00CFF3E031DD42BDC
:1007B8000130FD02031DAB2B7C08F3007B08F2001F
:1007C8007A08F1007908F00008007808F000790844
:1007D800F100F2018E30FB007B08F300F4010A12ED
:1007E8008A118B277008F8007108F9007208FA005E
:0207F8000800F7
:10080000FF1B0A2C83137F1883170008840A03191F
:10081000FF0A08007F087F398A000408840A031948
:10082000FF0A820001340034003400340A340034FA
:10083000003400346434003400340034E8340334C9
:10084000003400341034273400340034A0348634AB
:1008500001340034403442340F3400348034963450
:10086000983400340034E134F53405340034CA34AB
:100870009A343B340A340D3420342D342D342D3445
:100880002D342D342D342D34203445345334543408
:100890004F34553452344F342034443445342034AA
:1008A000503449344C344834413420342D342D34C0
:1008B0002D342D342D342D342D3420340A340D3480
:1008C000203400342D342D342D342D342D342D345A
:1008D0002D342D342D342D342D342D343E3420340C
:1008E000763461346C34763475346C34613420344D
:1008F000313420346434653473346134743469348D
:10090000763461346434613400342D342D342D3424
:100910002D342D342D342D342D342D342D342D34CF
:100920002D343E342034763461346C34763475346E
:100930006C3461342034323420346434653473349C
:10094000613474346934763461346434613400342D
:100950002D342D342D342D342D342D342D342D348F
:100960002D342D342D342D343E34203476346134FE
:100970006C34763475346C34613420343134203442
:1009800061347434693476346134643461340034ED
:100990002D342D342D342D342D342D342D342D344F
:1009A0002D342D342D342D343E34203476346134BE
:1009B0006C34763475346C34613420343234203401
:1009C00061347434693476346134643461340034AD
:1009D00049346E3469346334693461346C34693455
:1009E0007A3461346E3464346F342E342E342E34C1
:1009F000003425346C3475342E34253436342E349A
:100A000036346C34753400340C1F682D0030F0001F
:100A10000030F1000A128A15AA240A128A118312E0
:100A200003131E08E001E007831603131E08831258
:100A30000313DF01DF072830A000A030A1003B3006
:100A4000A2006008F901F9075F08F801F8070A1227
:100A50008A11E9230A128A11780883120313A3006A
:100A60007908A4007A08A5000A128A11FE250A1244
:100A70008A11831203132008DC002108DD002208FC
:100A8000DE005C08C5005D08C6005E08C7006B306C
:100A9000D3005308C8000A128A11D1260A128A11FB
:100AA00083120313D4005408E1006108F100003000
:100AB000F2000A128A15F9240A128A1102308312EE
:100AC0000313D300D30B622D652D831203130C1374
:100AD0008C1EF32D0A128A15C2240A128A1183125F
:100AE0000313D3005308D900E22D2330D300530859
:100AF000E2003A30D3005308E3000030F000003049
:100B0000F1000A128A15AA240A128A118312031309
:100B10001E08D3005308DA00831603131E0883123D
:100B20000313D3005308DB00DA08031D9B2D30307C
:100B3000D3005308DA00DB08031DA22D3030D300A8
:100B40005308DB005A08D3005308E4005B08D300C5
:100B50005308E5003030D3005308E6003030D300AE
:100B60005308E7003030D3005308E8003030D3009A
:100B70005308E9003B30D3005308EA006230F1002B
:100B80000030D52D0616A830F1008430D52D061280
:100B90006230F1008430D52D8616C830F1008430E3
:100BA000D52D86128530F1008430F2000A128A15A4
:100BB000F9240A128A11233083120313D300530835
:100BC000D900F32D5908413A0319752D033A031939
:100BD000C22D013A0319C72D073A0319CC2D013A4A
:100BE0000319D12DF32D5808FF0057088A00560825
:100BF0008400550E8300FE0E7E0E0900831203133F
:100C00002008A6002108A7002208A8000310270D2D
:100C1000280DA9002908AA00AA08031D162E0030D5
:100C2000A0000030A1000030A20008002308A600A8
:100C30002408A7002508A8000310270D280DA900E7
:100C40002908AF00AF08031D2C2E0030A000003093
:100C5000A1000030A20008002F087B3EA600260855
:100C6000AA072008A6002108A7002208A800103023
:100C70000310A80CA70CA60CFF3E031D382E260857
:100C8000A9002908AF002308A6002408A70025080A
:100C9000A80010300310A80CA70CA60CFF3E031DE3
:100CA0004A2E2608A9002908AF068030A60026088B
:100CB000AF05A117A417FF30A305FF30A40500302E
:100CC000A5050030AB000030AC000030AD000730AF
:100CD000A6002608AE00201C7B2E2308AB072408A4
:100CE00003110318240A031DAC0725080311031878
:100CF000250A031DAD0701300310A20CA10CA00CA6
:100D0000FF3E031D7C2E01300310A30DA40DA50D85
:100D1000FF3E031D842E0130AE02031D6B2E0930F1
:100D2000A6002608AE00201CA32E2308AB0724082B
:100D300003110318240A031DAC0725080311031827
:100D4000250A031DAD0701300310A20CA10CA00C55
:100D5000FF3E031DA42E01300310AD0CAC0CAB0CF8
:100D6000FF3E031DAC2E0130AE02031D932E2B0857
:100D7000F0002C08F1002D08F2002A08A600260831
:100D8000F3002F08A7002708F4000A128A118B2706
:100D9000700883120313A0007108A1007208A2005A
:100DA0000800BC3083120313C9004908D20045086B
:100DB000F0004608F1004708F2000030F300003070
:100DC000F4000030F5000A128A1586260A128A11EC
:100DD00003180A2F2D3083120313C9005208840010
:100DE0004908831380000130C9004908D20745082B
:100DF000F0004608F1004708F2000A128A157A242A
:100E00000A128A11700883120313C5007108C60004
:100E10007208C700831203134508B0004608B100EA
:100E20004708B2000A128A15E3260A128A118312B1
:100E300003133308D1003208D0003108CF00300846
:100E4000CE005108FB005008FA004F08F9004E0888
:100E5000F8000A128A153F250A128A1178088312AF
:100E60000313A7007908A8007A08A9004508AA007A
:100E70004608AB004708AC000A128A15DD240A12A6
:100E80008A11831203132708C5002808C600290801
:100E9000C7004508A3004608A4004708A500243061
:100EA000A0007430A1004930A2000A128A11FE2568
:100EB0000A128A11831203132008B0002108B1001E
:100EC0002208B2000A128A15E3260A128A11831236
:100ED00003133308CD003208CC003108CB003008B2
:100EE000CA00F930AA008430AB005108AF005008A6
:100EF000AE004F08AD004E08AC004D08B3004C08E2
:100F0000B2004B08B1004A08B00052080A128A1118
:100F10002820BC30080073080319932F720871044D
:100F20007004031DA62F0030F0000030F1000030E7
:100F3000F20008000130F5007508F30701300310D6
:100F4000F20CF10CF00CFF3E031D9F2FFE307205DA
:100F50000319C12F9A2F0130F5007508F3070130EE
:100F6000F007003003180130F1070030031801309A
:100F7000F20701300310F20CF10CF00CFF3E031DE0
:100F8000BA2FFF3072050319D02FAB2F0130F302B7
:100F900001300310F00DF10DF20DFF3E031DC92FBE
:100FA000F11FC62F7318DA2FFF30F0057F30F105DF
:100FB000FF30F2050310F30C7308F500F601F7019A
:100FC00010300310F50DF60DF70DFF3E031DE12F58
:100FD0007508F0047608F1047708F2047408031920
:100FE0000800F217080083160313A00083120C1EDA
:100FF000F62F8316031320088312031399000800A9
:1018E400F000831203130C1E732C70089900080077
:1018F400720871047004031908008030F2060800AD
:1019040064008001840A0406031900340406832C4D
:10191400F100F0013A3071020318962C3030710254
:10192400031C962CF001F00A700C080083160313B4
:101934009F179F151F159F141F10831203139F17C2
:101944001F13831603130C13831203130C130800C1
:101954007008F200F20DF20DF20D831203131F084A
:101964007206C73972069F001F142630F200F20B6C
:10197400B92C831203131F151F19BE2C0C13080056
:10198400831203139818CB2C1A08F3007308F4007D
:10199400DA2C3A30F1008430F2000A128A15F92464
:1019A4008312031318121A08F3007308F4001816AC
:1019B4008C1274080800803083120313A9062A08C5
:1019C400F8002B08F9002C08FA002708FB00280867
:1019D400FC002908FD000A128A1184227808831267
:1019E4000313A7007908A8007A08A9000800720860
:1019F40083120313FF00710884000A128A11002461
:101A04000A128A1500380319080072088312031396
:101A1400FF00710884000A128A1100240A128A1530
:101A24000A128A1572240A128A150130F107031862
:101A3400F20AF92CF401F501701C262D7208F40742
:101A44000318F50A7308F50701300310F20DF30DBE
:101A5400FF3E031D272D01300310F10CF00CFF3E57
:101A6400031D2E2D71087004031D1E2D7508F10130
:101A7400F1077408F001F00708008E30FC007C08C0
:101A8400FD00FF307B050319552D01300310FB0CBD
:101A9400FA0CF90CF80CFF3E031D482D0130FC0034
:101AA4007C08FD07432D7808F0007908F1007A08D6
:101AB400F2007D08FC007C08F300F4010A128A118C
:101AC4008B277008F8007108F9007208FA00080002
:101AD40083160313220883120313FF0083160313D0
:101AE40021088400831203130A128A1100240A12A3
:101AF4008A15003803190800831603132208831279
:101B04000313FF00831603132108840083120313B5
:101B14000A128A1100240A128A150A128A11F3275A
:101B24000A128A15013083160313A1070318A20AA7
:101B34006A2D83160313B8012F08B3003008B400CC
:101B44003108B5003208B60004300310B30DB40DEB
:101B5400B50DB60DFF3E031DA72D3608A3003508AD
:101B6400A2003408A1003308A0000130A7001930F6
:101B7400A6004030A5000030A4000A128A1571277F
:101B8400831603132008FF3EB7003708B80038084F
:101B940099009813181398161812181598141810F9
:101BA4008312031398171813981218169811181102
:101BB40098101810831603138C16831203138C12B7
:101BC40008008312031323082204210420040319A8
:101BD400282EA901A90AA31BFD2D0130A80003107A
:101BE400A00DA10DA20DA30DA80BF12D0130A8008D
:101BF4002808A907ED2D23082702031D0B2E220810
:101C04002602031D0B2E21082502031D0B2E20087E
:101C14002402031C1B2E2008A4022108031C210FEC
:101C2400A5022208031C220FA6022308031C230F6B
:101C3400A70201300310A30CA20CA10CA00CFF3EC0
:101C4400031D1C2E0130A902031DFD2D2708A3002E
:101C54002608A2002508A1002408A00008001F30BF
:101C64008316031385001F30831203138500831624
:101C74000313860183120313860180308316031332
:101C84008700C0308312031387008316031388016F
:101C94008312031388010730831603138900073066
:101CA400831203138900003083160313B20001303A
:101CB400B100C230B0000030AF000A128A159B2573
:101CC4000A128A150A128A1598240A128A150B1701
:101CD4008B17E83083160313A1008430A2000A1284
:101CE4008A156A250A128A15183083160313BB0055
:101CF4006130BA006E30B900B90B7E2EBA0B7E2E5D
:101D0400BB0B7E2E0000852EF21FAD2E0030F60098
:101D14000030F7008030F8007009F9007109FA000A
:101D24007209FB00F90A0319FA0A0319FB0A790874
:101D3400F6077A0803187A0FA02EA12EF7077B085E
:101D440003187B0FA62EA72EF8077608F000770855
:101D5400F1007808F200F51FD42E0030F6000030B0
:101D6400F7008030F8007309F9007409FA00750966
:101D7400FB00F90A0319FA0A0319FB0A7908F607A2
:101D84007A0803187A0FC72EC82EF7077B080318A2
:101D94007B0FCD2ECE2EF8077608F3007708F400DB
:101DA4007808F5008030F2068030F5067508720276
:101DB400031D080074087102031D080073087002F3
:101DC4000800831203133008B4003108B500320848
:101DD400B6000310350D360DB7003708BD00BD0839
:101DE400031DFD2E0030B3000030B2000030B100FE
:101DF4000030B00008003008B4003108B5003208E3
:101E0400B60017300310B60CB50CB40CFF3E031D1E
:101E1400042F3408B7003708B800B117FF30B005F5
:101E2400FF30B1050030B2053008B9003108BA00FE
:101E34003208BB00BC018E30BD02BD1F3F2F3D08E0
:101E4400803A8F3E03182F2F0030B3000030B200C9
:101E54000030B1000030B000080001300310BC0CA9
:101E6400BB0CBA0CB90CFF3E031D302F0130B4007B
:101E74003408BD0703195A2F2F2F18303D02031CB5
:101E8400572F0030B3000030B2000030B1000030F2
:101E9400B00008000130B4000310B90DBA0DBB0D39
:101EA400BC0DB40B4E2F0130BD02BD08031D4C2FD9
:101EB40038080319682FB909BA09BB09BC09B90A5A
:101EC4000319BA0A0319BB0A0319BC0A3C08B30074
:101ED4003B08B2003A08B1003908B0000800831684
:101EE4000313AA01A31F832FA009A109A209A3090F
:101EF400A00A0319A10A0319A20A0319A30AAA0131
:101F0400AA0AA71F942FA409A509A609A709A40A28
:101F14000319A50A0319A60A0319A70A0130A80080
:101F24002808AA060030AE000030AD000030AC0036
:101F34000030AB0023082204210420040319E92FF4
:101F4400A901A90AA31BB42F0130A8000310A00DF6
:101F5400A10DA20DA30DA80BA82F0130A8002808DD
:101F6400A907A42F0130A8000310AB0DAC0DAD0DD3
:101F7400AE0DA80BB62F23082702031DCB2F220872
:101F84002602031DCB2F21082502031DCB2F200879
:101F94002402031CDC2F2008A4022108031C210FA7
:101FA400A5022208031C220FA6022308031C230FE8
:101FB400A7022B1401300310A30CA20CA10CA00C3B
:101FC400FF3E031DDD2F0130A902031DB42F2A0893
:101FD4000319F72FAB09AC09AD09AE09AB0A031914
:101FE400AC0A0319AD0A0319AE0A2E08A3002D0882
:0C1FF400A2002C08A1002B08A00008008F
:02400E0032FF7F
:00000001FF
