:060000000A128A11122809
:10000800FE00030EF6000408F7000A08F800831241
:1000180003137F08F9000A128A1128280A128A1184
:100028001528FC01FD0183133C30840054300A126A
:100038008A119E220A128A110A128A11AE22D4004B
:1000480083010A128A1148290C1C3C281F308F0092
:1000580000308E000A304D064E04031D3B28013047
:10006800CF070318D00A0030D007CD01CE010C10FD
:100078000C1B0C138C1EAE280A128A114A220A1273
:100088008A11F500750883120313D400A9282330B8
:10009800F5007508BC002430F5007508BD003A303D
:1000A800F5007508BE000030F0000030F1000A12BB
:1000B8008A1164220A128A11831203131E08F5009A
:1000C8007508FC00831603131E08F5007508FD006B
:1000D8007C08F500750883120313BF007D08F5003E
:1000E8007508C000FA01FB0105307B020318962849
:1000F8007B083C3E8400831300080A128A11A6225A
:100108000A128A117B083C3E840083130008F5001C
:100118007508FA060130F5007508FB0705307B0203
:10012800031C7C287A08F500750883120313C100A4
:1001380041080A128A11A6220A128A112330F500F0
:10014800750883120313D400AE285408413A0319E2
:100158004B28AE287908FF0078088A0077088400C1
:10016800760E8300FE0E7E0E090083120313AA0189
:10017800A31FCB28A009A109A209A309A00A031952
:10018800A10A0319A20A0319A30AAA01AA0AA71F06
:10019800DC28A409A509A609A709A40A0319A50A20
:1001A8000319A60A0319A70A0130A8002808AA06F5
:1001B8000030AE000030AD000030AC000030AB00C5
:1001C800230822042104200403193129A901A90ABA
:1001D800A31BFC280130A8000310A00DA10DA20D3F
:1001E800A30DA80BF0280130A8002808A907EC28BF
:1001F8000130A8000310AB0DAC0DAD0DAE0DA80B72
:10020800FE2823082702031D132922082602031D9E
:10021800132921082502031D132920082402031C81
:1002280024292008A4022108031C210FA502220862
:10023800031C220FA6022308031C230FA7022B145A
:1002480001300310A30CA20CA10CA00CFF3E031D4F
:1002580025290130A902031DFC282A0803193F2972
:10026800AB09AC09AD09AE09AB0A0319AC0A03190D
:10027800AD0A0319AE0A2E08A3002D08A2002C0807
:10028800A1002B08A0000800013083160313850085
:10029800013083120313850083160313860183122A
:1002A800031386018030831603138700C03083123E
:1002B800031387008316031388018312031388012D
:1002C800073083160313890007308312031389004C
:1002D8000030B2000130B100C230B0000030AF00D1
:1002E8000A128A1195210A128A110A128A117C228D
:1002F8000A128A110B178B170A3083120313BB00DB
:100308005A30BA00C330B900B90B8829BA0B88290A
:10031800BB0B88298F290A128A118E220A128A1188
:10032800942983120313B8012F08B3003008B400CE
:100338003108B5003208B60004300310B30DB40D0F
:10034800B50DB60DFF3E031DA1293608A3003508DB
:10035800A2003408A1003308A0000130A70019301A
:10036800A6004030A5000030A4000A128A11B92066
:10037800831203132008FF3EB7003708B800380877
:100388008316031399009813181398161812181542
:100398009814181083120313981718139812181624
:1003A8009811181198101810831603138C168312BD
:0603B80003138C12080083
:1004000002308A000408840A820700340A340D345A
:1004100020342D342D342D342D342D342D342D34E1
:1004200020344534533454344F34553452344F34DB
:100430002034443445342034503449344C34483426
:10044000413420342D342D342D342D342D342D349D
:100450002D3420340A340D3420340034F200720874
:1004600084000A128A1100220A128A110038031924
:100470000800720884000A128A1100220A128A11E6
:100480000A128A11A6220A128A110130F10071089B
:10049000F2072F2A831203139818552A06161A08F2
:1004A000F3007308F4000612612A01300A128A115F
:1004B0002E228312031318121A08F3007308F40093
:1004C00018168C12740808007008F200F20DF20D74
:1004D000F20D831203131F087206C73972069F00BC
:1004E0001F142630F200F20B732A831203131F1518
:1004F0001F19782A0C130800831603139F179F15E2
:100500001F159F141F10831203139F171F138316A9
:1005100003130C13831203130C1308008312031329
:10052000901090119016101610141F308F0000308C
:100530008E000C10831603130C1408006400800155
:10054000840A04060319003404069F2AF00083126B
:0E05500003130C1EA72A70089900080023341C
:02400E0032FF7F
:00000001FF
